:100000000C9434000C9451000C9451000C94510049
:100010000C9451000C9451000C9451000C9451001C
:100020000C9451000C9451000C9451000C9451000C
:100030000C9451000C9451000C9451000C945100FC
:100040000C9451000C9451000C9451000C945100EC
:100050000C9451000C9451000C9451000C945100DC
:100060000C9451000C94510011241FBECFEFD8E026
:10007000DEBFCDBF11E0A0E0B1E0EAE3F6E002C0F0
:1000800005900D92A630B107D9F721E0A6E0B1E0C6
:1000900001C01D92A431B207E1F70E94F0000C9458
:1000A0001B030C9400000F931F9300918400109188
:1000B000850080911001909111010817190748F4EB
:1000C00080911201909113010196909313018093F6
:1000D00012011093110100931001609112017091AF
:1000E000130190E080E0CB017727662730E020E025
:1000F000602B712B822B932B96958795779567951F
:100100001F910F9108950F931F93CF93C1E080919A
:10011000C00087FD04C0CF911F910F910895809179
:10012000C600E0910E018A3019F08D3009F04CC004
:10013000AE2FB0E0AA5FBE4F1C92EE23D9F08091A3
:1001400006018237D1F487E091E00E94DF028B0143
:100150009C0102531109210931090F301F4121056A
:10016000310540F47093040160930301C0930001D2
:1001700010920F0110920E01CACF833751F481E023
:1001800090910F01911180E080930F01C0930001C5
:10019000F1CF883719F410920001ECCF873751F76F
:1001A00087E091E00E94DF028B019C010A50110957
:1001B000210931090135110521053105D8F6709362
:1001C000020160930101D6CFE73008F0A0CF91E0A3
:1001D0009E0F90930E01F0E0EA5FFE4F808397CF71
:1001E000CF93DF9300D000D01F92CDB7DEB7209A17
:1001F000289A82E08093810089E190E09093C50085
:100200008093C40080E18093C10086E08093C200A7
:100210000E9453002B013C0128EE420E23E0521EA7
:10022000611C711C31E03D83AAEF8A2E912C8091D4
:100230000F017401811104C0E0900301F0900401EA
:100240000E9483008091000181110FC0289A0E94B2
:1002500053002B013C0158EE450E53E0551E611C26
:10026000711CE5CF4FEF4D83E2CF970150E040E0A6
:1002700060E07EE087E297E00E94A30129833A8351
:100280004B835C83609101017091020190E080E0FA
:100290000E94C501E0EDAE2EF2E0BF2EC12CD12CA4
:1002A000E12CF12C00E010E00E94230269017A01A8
:1002B0000E945300A3019201261B370B480B590BD8
:1002C000DA01C901181619061A061B06B4F1289896
:1002D000C40CD51CE61CF71C0E945300A701960114
:1002E000261B370B480B590BDA01C90118161906E2
:1002F0001A061B062CF1289A89819A81AB81BC8150
:10030000480E591E6A1E7B1E80910F01882309F436
:100310008ECF9D81A2E39A02800C911C1124B0E73C
:100320008B16B7E19B060CF09DCF2BEF8216910444
:100330000CF07DCF31E03D837ACF0E948300B8CFAF
:100340000E948300C9CFA1E21A2EAA1BBB1BFD018C
:100350000DC0AA1FBB1FEE1FFF1FA217B307E407A4
:10036000F50720F0A21BB30BE40BF50B661F771FFC
:10037000881F991F1A9469F76095709580959095DC
:100380009B01AC01BD01CF010895E894DF93CF93A9
:10039000FC01DB010E94C7027F936F93E9019A0180
:1003A000AC01BF93AF933F932F93DF010E94C7022D
:1003B00026F46C1B7D0B820B930B9E01EB01FC0161
:1003C0000E94D602AF91BF912F913F910E94D60219
:1003D000BE01CF01F9012F913F91CF91DF91089597
:1003E000689401C0E894F92FF12B12F00C942402C8
:1003F000A0E0B0E0EEEFF1E00C949602092E059437
:1004000022F40E948002112392F4F0E80F26FFEFFD
:10041000E094F09400951095B094C094D094A19479
:10042000BF0ACF0ADF0AEF0AFF0A0F0B1F0B0E9459
:100430002F0207FC0E948002CDB7DEB7ECE00C94DF
:10044000B202689401C0E8948F929F92CF93DF9399
:100450000E942F02DF91CF919F908F900895882462
:100460009924F401E401B0E49F93AA279A158B0420
:100470009C04ED05FE05CF05D007A10798F4AD2F2C
:10048000DC2FCF2FFE2FE92D982C892E982F872F28
:10049000762F652F542F432F322F2227B85031F754
:1004A000BF9127C01B2EBF91BB27220F331F441FB4
:1004B000551F661F771F881F991F881C991CEE1FE8
:1004C000FF1FCC1FDD1FAA1FBB1F8A149B04EC0556
:1004D000FD05CE05DF05A007B10748F08A189B0887
:1004E000EC09FD09CE09DF09A00BB10B21601A94BC
:1004F000E1F62EF49401AF01BE01CD01000C089588
:100500006095709580959095309540955095219582
:100510003F4F4F4F5F4F6F4F7F4F8F4F9F4F08950C
:100520002F923F924F925F926F927F928F929F9203
:10053000AF92BF92CF92DF92EF92FF920F931F93F1
:10054000CF93DF93CDB7DEB7CA1BDB0B0FB6F894A2
:10055000DEBF0FBECDBF09942A88398848885F84E2
:100560006E847D848C849B84AA84B984C884DF8053
:10057000EE80FD800C811B81AA81B981CE0FD11D37
:100580000FB6F894DEBF0FBECDBFED010895A29F58
:10059000B001B39FC001A39F700D811D1124911D57
:1005A000B29F700D811D1124911D08950E94C702F4
:1005B000460F571FC81FD91F08F4319608951F937F
:1005C000FC0199278827BC01E89411911032E9F3C6
:1005D000193010F01E30C8F31B3251F01D3249F4AF
:1005E000689406C00E940603610F711D811D911D54
:1005F000119110531A30B0F33EF490958095709598
:1006000061957F4F8F4F9F4F1F910895592F482F0E
:10061000372F262F660F771F881F991F660F771FAA
:10062000881F991F620F731F841F951F660F771F06
:0A063000881F991F0895F894FFCF6A
:06063A00013200B80B00C4
:00000001FF
